{
  "contractName": "BlogFactory",
  "abi": [
    {
      "anonymous": false,
      "inputs": [
        {
          "indexed": false,
          "internalType": "uint256",
          "name": "blogId",
          "type": "uint256"
        },
        {
          "indexed": false,
          "internalType": "string",
          "name": "title",
          "type": "string"
        },
        {
          "indexed": false,
          "internalType": "string",
          "name": "content",
          "type": "string"
        },
        {
          "indexed": false,
          "internalType": "string",
          "name": "heroImageHash",
          "type": "string"
        },
        {
          "indexed": false,
          "internalType": "uint256",
          "name": "blogHash",
          "type": "uint256"
        }
      ],
      "name": "NewBlog",
      "type": "event"
    },
    {
      "inputs": [
        {
          "internalType": "uint256",
          "name": "",
          "type": "uint256"
        }
      ],
      "name": "blogHashToBlog",
      "outputs": [
        {
          "internalType": "string",
          "name": "title",
          "type": "string"
        },
        {
          "internalType": "string",
          "name": "content",
          "type": "string"
        },
        {
          "internalType": "string",
          "name": "heroImageHash",
          "type": "string"
        },
        {
          "internalType": "address",
          "name": "publisher",
          "type": "address"
        },
        {
          "internalType": "uint256",
          "name": "blogHash",
          "type": "uint256"
        }
      ],
      "stateMutability": "view",
      "type": "function"
    },
    {
      "inputs": [
        {
          "internalType": "uint256",
          "name": "",
          "type": "uint256"
        }
      ],
      "name": "blogToOwner",
      "outputs": [
        {
          "internalType": "address",
          "name": "",
          "type": "address"
        }
      ],
      "stateMutability": "view",
      "type": "function"
    },
    {
      "inputs": [
        {
          "internalType": "uint256",
          "name": "",
          "type": "uint256"
        }
      ],
      "name": "blogs",
      "outputs": [
        {
          "internalType": "string",
          "name": "title",
          "type": "string"
        },
        {
          "internalType": "string",
          "name": "content",
          "type": "string"
        },
        {
          "internalType": "string",
          "name": "heroImageHash",
          "type": "string"
        },
        {
          "internalType": "address",
          "name": "publisher",
          "type": "address"
        },
        {
          "internalType": "uint256",
          "name": "blogHash",
          "type": "uint256"
        }
      ],
      "stateMutability": "view",
      "type": "function"
    },
    {
      "inputs": [
        {
          "internalType": "address",
          "name": "",
          "type": "address"
        }
      ],
      "name": "userBlogCount",
      "outputs": [
        {
          "internalType": "uint256",
          "name": "",
          "type": "uint256"
        }
      ],
      "stateMutability": "view",
      "type": "function"
    },
    {
      "inputs": [
        {
          "internalType": "string",
          "name": "_title",
          "type": "string"
        },
        {
          "internalType": "string",
          "name": "_content",
          "type": "string"
        },
        {
          "internalType": "string",
          "name": "_heroImageHash",
          "type": "string"
        }
      ],
      "name": "createBlog",
      "outputs": [],
      "stateMutability": "nonpayable",
      "type": "function"
    },
    {
      "inputs": [
        {
          "internalType": "uint256",
          "name": "blogIndex",
          "type": "uint256"
        }
      ],
      "name": "getBlog",
      "outputs": [
        {
          "internalType": "string",
          "name": "",
          "type": "string"
        },
        {
          "internalType": "string",
          "name": "",
          "type": "string"
        },
        {
          "internalType": "string",
          "name": "",
          "type": "string"
        },
        {
          "internalType": "address",
          "name": "",
          "type": "address"
        },
        {
          "internalType": "uint256",
          "name": "",
          "type": "uint256"
        }
      ],
      "stateMutability": "view",
      "type": "function"
    },
    {
      "inputs": [],
      "name": "getBlogCount",
      "outputs": [
        {
          "internalType": "uint256",
          "name": "",
          "type": "uint256"
        }
      ],
      "stateMutability": "view",
      "type": "function"
    },
    {
      "inputs": [],
      "name": "getAllBlogs",
      "outputs": [
        {
          "components": [
            {
              "internalType": "string",
              "name": "title",
              "type": "string"
            },
            {
              "internalType": "string",
              "name": "content",
              "type": "string"
            },
            {
              "internalType": "string",
              "name": "heroImageHash",
              "type": "string"
            },
            {
              "internalType": "address",
              "name": "publisher",
              "type": "address"
            },
            {
              "internalType": "uint256",
              "name": "blogHash",
              "type": "uint256"
            }
          ],
          "internalType": "struct BlogFactory.Blog[]",
          "name": "",
          "type": "tuple[]"
        }
      ],
      "stateMutability": "view",
      "type": "function"
    },
    {
      "inputs": [
        {
          "internalType": "string",
          "name": "numString",
          "type": "string"
        }
      ],
      "name": "st2num",
      "outputs": [
        {
          "internalType": "uint256",
          "name": "",
          "type": "uint256"
        }
      ],
      "stateMutability": "pure",
      "type": "function"
    },
    {
      "inputs": [
        {
          "internalType": "string",
          "name": "_blogHash",
          "type": "string"
        }
      ],
      "name": "getBlogFromBlogHash",
      "outputs": [
        {
          "internalType": "string",
          "name": "",
          "type": "string"
        },
        {
          "internalType": "string",
          "name": "",
          "type": "string"
        },
        {
          "internalType": "string",
          "name": "",
          "type": "string"
        },
        {
          "internalType": "address",
          "name": "",
          "type": "address"
        }
      ],
      "stateMutability": "view",
      "type": "function"
    }
  ],
  "bytecode": "0x6080604052600060025534801561001557600080fd5b50611ec8806100256000396000f3fe608060405234801561001057600080fd5b506004361061009e5760003560e01c80638e4390cc116100665780638e4390cc1461018a578063c4c74700146101ba578063c8b71c95146101d8578063d4868baa146101f6578063d7e850461461022a5761009e565b80635a673b8f146100a35780636a5659b7146100d75780637636da28146100f357806379cd90551461012657806380f052d814610156575b600080fd5b6100bd60048036038101906100b891906113c0565b61025a565b6040516100ce9594939291906114d6565b60405180910390f35b6100f160048036038101906100ec9190611673565b610448565b005b61010d6004803603810190610108919061171a565b610466565b60405161011d9493929190611763565b60405180910390f35b610140600480360381019061013b919061171a565b6106a6565b60405161014d91906117bd565b60405180910390f35b610170600480360381019061016b91906113c0565b610760565b6040516101819594939291906114d6565b60405180910390f35b6101a4600480360381019061019f91906113c0565b61095e565b6040516101b191906117d8565b60405180910390f35b6101c2610991565b6040516101cf91906119a1565b60405180910390f35b6101e0610c06565b6040516101ed91906117bd565b60405180910390f35b610210600480360381019061020b91906113c0565b610c0f565b6040516102219594939291906114d6565b60405180910390f35b610244600480360381019061023f91906119ef565b610ea9565b60405161025191906117bd565b60405180910390f35b600560205280600052604060002060009150905080600001805461027d90611a4b565b80601f01602080910402602001604051908101604052809291908181526020018280546102a990611a4b565b80156102f65780601f106102cb576101008083540402835291602001916102f6565b820191906000526020600020905b8154815290600101906020018083116102d957829003601f168201915b50505050509080600101805461030b90611a4b565b80601f016020809104026020016040519081016040528092919081815260200182805461033790611a4b565b80156103845780601f1061035957610100808354040283529160200191610384565b820191906000526020600020905b81548152906001019060200180831161036757829003601f168201915b50505050509080600201805461039990611a4b565b80601f01602080910402602001604051908101604052809291908181526020018280546103c590611a4b565b80156104125780601f106103e757610100808354040283529160200191610412565b820191906000526020600020905b8154815290600101906020018083116103f557829003601f168201915b5050505050908060030160009054906101000a900473ffffffffffffffffffffffffffffffffffffffff16908060040154905085565b6000610452610ec1565b905061046084848484610f10565b50505050565b6060806060600080610477866106a6565b90506005600082815260200190815260200160002060000160056000838152602001908152602001600020600101600560008481526020019081526020016000206002016005600085815260200190815260200160002060030160009054906101000a900473ffffffffffffffffffffffffffffffffffffffff168380546104fe90611a4b565b80601f016020809104026020016040519081016040528092919081815260200182805461052a90611a4b565b80156105775780601f1061054c57610100808354040283529160200191610577565b820191906000526020600020905b81548152906001019060200180831161055a57829003601f168201915b5050505050935082805461058a90611a4b565b80601f01602080910402602001604051908101604052809291908181526020018280546105b690611a4b565b80156106035780601f106105d857610100808354040283529160200191610603565b820191906000526020600020905b8154815290600101906020018083116105e657829003601f168201915b5050505050925081805461061690611a4b565b80601f016020809104026020016040519081016040528092919081815260200182805461064290611a4b565b801561068f5780601f106106645761010080835404028352916020019161068f565b820191906000526020600020905b81548152906001019060200180831161067257829003601f168201915b505050505091509450945094509450509193509193565b60008060009050600083905060005b81518110156107555760008183516106cd9190611aab565b905060008383815181106106e4576106e3611adf565b5b602001015160f81c60f81b905060008160f81c9050600060308260ff1661070b9190611aab565b905060018461071a9190611aab565b600a6107269190611c41565b816107319190611c8c565b8761073c9190611ce6565b965050505050808061074d90611d3c565b9150506106b5565b508192505050919050565b6001818154811061077057600080fd5b906000526020600020906005020160009150905080600001805461079390611a4b565b80601f01602080910402602001604051908101604052809291908181526020018280546107bf90611a4b565b801561080c5780601f106107e15761010080835404028352916020019161080c565b820191906000526020600020905b8154815290600101906020018083116107ef57829003601f168201915b50505050509080600101805461082190611a4b565b80601f016020809104026020016040519081016040528092919081815260200182805461084d90611a4b565b801561089a5780601f1061086f5761010080835404028352916020019161089a565b820191906000526020600020905b81548152906001019060200180831161087d57829003601f168201915b5050505050908060020180546108af90611a4b565b80601f01602080910402602001604051908101604052809291908181526020018280546108db90611a4b565b80156109285780601f106108fd57610100808354040283529160200191610928565b820191906000526020600020905b81548152906001019060200180831161090b57829003601f168201915b5050505050908060030160009054906101000a900473ffffffffffffffffffffffffffffffffffffffff16908060040154905085565b60036020528060005260406000206000915054906101000a900473ffffffffffffffffffffffffffffffffffffffff1681565b60606001805480602002602001604051908101604052809291908181526020016000905b82821015610bfd57838290600052602060002090600502016040518060a00160405290816000820180546109e890611a4b565b80601f0160208091040260200160405190810160405280929190818152602001828054610a1490611a4b565b8015610a615780601f10610a3657610100808354040283529160200191610a61565b820191906000526020600020905b815481529060010190602001808311610a4457829003601f168201915b50505050508152602001600182018054610a7a90611a4b565b80601f0160208091040260200160405190810160405280929190818152602001828054610aa690611a4b565b8015610af35780601f10610ac857610100808354040283529160200191610af3565b820191906000526020600020905b815481529060010190602001808311610ad657829003601f168201915b50505050508152602001600282018054610b0c90611a4b565b80601f0160208091040260200160405190810160405280929190818152602001828054610b3890611a4b565b8015610b855780601f10610b5a57610100808354040283529160200191610b85565b820191906000526020600020905b815481529060010190602001808311610b6857829003601f168201915b505050505081526020016003820160009054906101000a900473ffffffffffffffffffffffffffffffffffffffff1673ffffffffffffffffffffffffffffffffffffffff1673ffffffffffffffffffffffffffffffffffffffff168152602001600482015481525050815260200190600101906109b5565b50505050905090565b60008054905090565b606080606060008060018681548110610c2b57610c2a611adf565b5b906000526020600020906005020160000160018781548110610c5057610c4f611adf565b5b906000526020600020906005020160010160018881548110610c7557610c74611adf565b5b906000526020600020906005020160020160018981548110610c9a57610c99611adf565b5b906000526020600020906005020160030160009054906101000a900473ffffffffffffffffffffffffffffffffffffffff1660018a81548110610ce057610cdf611adf565b5b906000526020600020906005020160040154848054610cfe90611a4b565b80601f0160208091040260200160405190810160405280929190818152602001828054610d2a90611a4b565b8015610d775780601f10610d4c57610100808354040283529160200191610d77565b820191906000526020600020905b815481529060010190602001808311610d5a57829003601f168201915b50505050509450838054610d8a90611a4b565b80601f0160208091040260200160405190810160405280929190818152602001828054610db690611a4b565b8015610e035780601f10610dd857610100808354040283529160200191610e03565b820191906000526020600020905b815481529060010190602001808311610de657829003601f168201915b50505050509350828054610e1690611a4b565b80601f0160208091040260200160405190810160405280929190818152602001828054610e4290611a4b565b8015610e8f5780601f10610e6457610100808354040283529160200191610e8f565b820191906000526020600020905b815481529060010190602001808311610e7257829003601f168201915b505050505092509450945094509450945091939590929450565b60046020528060005260406000206000915090505481565b600060026000815480929190610ed690611d3c565b91905055504233600254604051602001610ef293929190611ded565b6040516020818303038152906040528051906020012060001c905090565b60016040518060a001604052808681526020018581526020018481526020013373ffffffffffffffffffffffffffffffffffffffff1681526020018381525090806001815401808255809150506001900390600052602060002090600502016000909190919091506000820151816000019080519060200190610f94929190611246565b506020820151816001019080519060200190610fb1929190611246565b506040820151816002019080519060200190610fce929190611246565b5060608201518160030160006101000a81548173ffffffffffffffffffffffffffffffffffffffff021916908373ffffffffffffffffffffffffffffffffffffffff1602179055506080820151816004015550506000600180805490506110359190611aab565b90506001818154811061104b5761104a611adf565b5b906000526020600020906005020160056000848152602001908152602001600020600082018160000190805461108090611a4b565b61108b9291906112cc565b5060018201816001019080546110a090611a4b565b6110ab9291906112cc565b5060028201816002019080546110c090611a4b565b6110cb9291906112cc565b506003820160009054906101000a900473ffffffffffffffffffffffffffffffffffffffff168160030160006101000a81548173ffffffffffffffffffffffffffffffffffffffff021916908373ffffffffffffffffffffffffffffffffffffffff16021790555060048201548160040155905050336003600083815260200190815260200160002060006101000a81548173ffffffffffffffffffffffffffffffffffffffff021916908373ffffffffffffffffffffffffffffffffffffffff160217905550600460003373ffffffffffffffffffffffffffffffffffffffff1673ffffffffffffffffffffffffffffffffffffffff16815260200190815260200160002060008154809291906111e290611d3c565b919050555060016000808282546111f99190611ce6565b925050819055507fc535471e085d018515b55f972236b1a269a96dfb8f4a48f60eb73cdaeea009178186868686604051611237959493929190611e2a565b60405180910390a15050505050565b82805461125290611a4b565b90600052602060002090601f01602090048101928261127457600085556112bb565b82601f1061128d57805160ff19168380011785556112bb565b828001600101855582156112bb579182015b828111156112ba57825182559160200191906001019061129f565b5b5090506112c89190611359565b5090565b8280546112d890611a4b565b90600052602060002090601f0160209004810192826112fa5760008555611348565b82601f1061130b5780548555611348565b8280016001018555821561134857600052602060002091601f016020900482015b8281111561134757825482559160010191906001019061132c565b5b5090506113559190611359565b5090565b5b8082111561137257600081600090555060010161135a565b5090565b6000604051905090565b600080fd5b600080fd5b6000819050919050565b61139d8161138a565b81146113a857600080fd5b50565b6000813590506113ba81611394565b92915050565b6000602082840312156113d6576113d5611380565b5b60006113e4848285016113ab565b91505092915050565b600081519050919050565b600082825260208201905092915050565b60005b8381101561142757808201518184015260208101905061140c565b83811115611436576000848401525b50505050565b6000601f19601f8301169050919050565b6000611458826113ed565b61146281856113f8565b9350611472818560208601611409565b61147b8161143c565b840191505092915050565b600073ffffffffffffffffffffffffffffffffffffffff82169050919050565b60006114b182611486565b9050919050565b6114c1816114a6565b82525050565b6114d08161138a565b82525050565b600060a08201905081810360008301526114f0818861144d565b90508181036020830152611504818761144d565b90508181036040830152611518818661144d565b905061152760608301856114b8565b61153460808301846114c7565b9695505050505050565b600080fd5b600080fd5b7f4e487b7100000000000000000000000000000000000000000000000000000000600052604160045260246000fd5b6115808261143c565b810181811067ffffffffffffffff8211171561159f5761159e611548565b5b80604052505050565b60006115b2611376565b90506115be8282611577565b919050565b600067ffffffffffffffff8211156115de576115dd611548565b5b6115e78261143c565b9050602081019050919050565b82818337600083830152505050565b6000611616611611846115c3565b6115a8565b90508281526020810184848401111561163257611631611543565b5b61163d8482856115f4565b509392505050565b600082601f83011261165a5761165961153e565b5b813561166a848260208601611603565b91505092915050565b60008060006060848603121561168c5761168b611380565b5b600084013567ffffffffffffffff8111156116aa576116a9611385565b5b6116b686828701611645565b935050602084013567ffffffffffffffff8111156116d7576116d6611385565b5b6116e386828701611645565b925050604084013567ffffffffffffffff81111561170457611703611385565b5b61171086828701611645565b9150509250925092565b6000602082840312156117305761172f611380565b5b600082013567ffffffffffffffff81111561174e5761174d611385565b5b61175a84828501611645565b91505092915050565b6000608082019050818103600083015261177d818761144d565b90508181036020830152611791818661144d565b905081810360408301526117a5818561144d565b90506117b460608301846114b8565b95945050505050565b60006020820190506117d260008301846114c7565b92915050565b60006020820190506117ed60008301846114b8565b92915050565b600081519050919050565b600082825260208201905092915050565b6000819050602082019050919050565b600082825260208201905092915050565b600061183b826113ed565b611845818561181f565b9350611855818560208601611409565b61185e8161143c565b840191505092915050565b611872816114a6565b82525050565b6118818161138a565b82525050565b600060a08301600083015184820360008601526118a48282611830565b915050602083015184820360208601526118be8282611830565b915050604083015184820360408601526118d88282611830565b91505060608301516118ed6060860182611869565b5060808301516119006080860182611878565b508091505092915050565b60006119178383611887565b905092915050565b6000602082019050919050565b6000611937826117f3565b61194181856117fe565b9350836020820285016119538561180f565b8060005b8581101561198f5784840389528151611970858261190b565b945061197b8361191f565b925060208a01995050600181019050611957565b50829750879550505050505092915050565b600060208201905081810360008301526119bb818461192c565b905092915050565b6119cc816114a6565b81146119d757600080fd5b50565b6000813590506119e9816119c3565b92915050565b600060208284031215611a0557611a04611380565b5b6000611a13848285016119da565b91505092915050565b7f4e487b7100000000000000000000000000000000000000000000000000000000600052602260045260246000fd5b60006002820490506001821680611a6357607f821691505b602082108103611a7657611a75611a1c565b5b50919050565b7f4e487b7100000000000000000000000000000000000000000000000000000000600052601160045260246000fd5b6000611ab68261138a565b9150611ac18361138a565b925082821015611ad457611ad3611a7c565b5b828203905092915050565b7f4e487b7100000000000000000000000000000000000000000000000000000000600052603260045260246000fd5b60008160011c9050919050565b6000808291508390505b6001851115611b6557808604811115611b4157611b40611a7c565b5b6001851615611b505780820291505b8081029050611b5e85611b0e565b9450611b25565b94509492505050565b600082611b7e5760019050611c3a565b81611b8c5760009050611c3a565b8160018114611ba25760028114611bac57611bdb565b6001915050611c3a565b60ff841115611bbe57611bbd611a7c565b5b8360020a915084821115611bd557611bd4611a7c565b5b50611c3a565b5060208310610133831016604e8410600b8410161715611c105782820a905083811115611c0b57611c0a611a7c565b5b611c3a565b611c1d8484846001611b1b565b92509050818404811115611c3457611c33611a7c565b5b81810290505b9392505050565b6000611c4c8261138a565b9150611c578361138a565b9250611c847fffffffffffffffffffffffffffffffffffffffffffffffffffffffffffffffff8484611b6e565b905092915050565b6000611c978261138a565b9150611ca28361138a565b9250817fffffffffffffffffffffffffffffffffffffffffffffffffffffffffffffffff0483118215151615611cdb57611cda611a7c565b5b828202905092915050565b6000611cf18261138a565b9150611cfc8361138a565b9250827fffffffffffffffffffffffffffffffffffffffffffffffffffffffffffffffff03821115611d3157611d30611a7c565b5b828201905092915050565b6000611d478261138a565b91507fffffffffffffffffffffffffffffffffffffffffffffffffffffffffffffffff8203611d7957611d78611a7c565b5b600182019050919050565b6000819050919050565b611d9f611d9a8261138a565b611d84565b82525050565b60008160601b9050919050565b6000611dbd82611da5565b9050919050565b6000611dcf82611db2565b9050919050565b611de7611de2826114a6565b611dc4565b82525050565b6000611df98286611d8e565b602082019150611e098285611dd6565b601482019150611e198284611d8e565b602082019150819050949350505050565b600060a082019050611e3f60008301886114c7565b8181036020830152611e51818761144d565b90508181036040830152611e65818661144d565b90508181036060830152611e79818561144d565b9050611e8860808301846114c7565b969550505050505056fea264697066735822122044e330264e647c98e9f9ebe83d76cf734c0431e88f917859c6161692e9c38fae64736f6c634300080d0033",
  "immutableReferences": {},
  "source": "// SPDX-License-Identifier: UNLICENSED\n\npragma solidity ^0.8.0;\npragma experimental ABIEncoderV2;\n\ncontract BlogFactory {\n    uint256 blogCount;\n\n    event NewBlog(\n        uint256 blogId,\n        string title,\n        string content,\n        string heroImageHash,\n        uint256 blogHash\n    );\n\n    struct Blog {\n        string title;\n        string content;\n        string heroImageHash;\n        address publisher;\n        uint256 blogHash;\n        //We have to add timestap later....\n    }\n\n    Blog[] public blogs;\n\n    uint256 randNonce = 0; // for Generating BlogHash\n    // declare mappings here\n    mapping(uint256 => address) public blogToOwner;\n    mapping(address => uint256) public userBlogCount;\n    mapping(uint256 => Blog) public blogHashToBlog;\n\n    // function setImage(string memory x) public {\n    //     ipfsHash = x;\n    // }\n\n    // function getImage() public view returns (string memory) {\n    //     return ipfsHash;\n    // }\n\n    function _publishBlog(\n        string memory _title,\n        string memory _content,\n        string memory _heroImageHash,\n        uint256 _blogHash\n    ) private {\n        blogs.push(\n            Blog(_title, _content, _heroImageHash, msg.sender, _blogHash)\n        );\n        uint256 id = blogs.length - 1;\n        blogHashToBlog[_blogHash] = blogs[id];\n        blogToOwner[id] = msg.sender;\n        userBlogCount[msg.sender]++;\n        blogCount += 1;\n        emit NewBlog(id, _title, _content, _heroImageHash, _blogHash);\n    }\n\n    function _generateBlogHash() internal returns (uint256) {\n        randNonce++;\n        return\n            uint256(\n                keccak256(\n                    abi.encodePacked(block.timestamp, msg.sender, randNonce)\n                )\n            );\n    }\n\n    function createBlog(\n        string memory _title,\n        string memory _content,\n        string memory _heroImageHash\n    ) public {\n        //uint randDna = _generateBlogHash(_name);\n        uint256 blogHash = _generateBlogHash();\n        _publishBlog(_title, _content, _heroImageHash, blogHash);\n    }\n\n    function getBlog(uint256 blogIndex)\n        public\n        view\n        returns (\n            string memory,\n            string memory,\n            string memory,\n            address,\n            uint256\n        )\n    {\n        return (\n            blogs[blogIndex].title,\n            blogs[blogIndex].content,\n            blogs[blogIndex].heroImageHash,\n            blogs[blogIndex].publisher,\n            blogs[blogIndex].blogHash\n        );\n    }\n\n    function getBlogCount() public view returns (uint256) {\n        return blogCount;\n    }\n\n    function getAllBlogs() public view returns (Blog[] memory) {\n        return blogs;\n    }\n\n    function st2num(string memory numString) public pure returns (uint256) {\n        uint256 val = 0;\n        bytes memory stringBytes = bytes(numString);\n        for (uint256 i = 0; i < stringBytes.length; i++) {\n            uint256 exp = stringBytes.length - i;\n            bytes1 ival = stringBytes[i];\n            uint8 uval = uint8(ival);\n            uint256 jval = uval - uint256(0x30);\n\n            val += (uint256(jval) * (10**(exp - 1)));\n        }\n        return val;\n    }\n\n    function getBlogFromBlogHash(string memory _blogHash)\n        public\n        view\n        returns (\n            string memory,\n            string memory,\n            string memory,\n            address\n        )\n    {\n        uint256 bloghashInt = st2num(_blogHash);\n        return (\n            blogHashToBlog[bloghashInt].title,\n            blogHashToBlog[bloghashInt].content,\n            blogHashToBlog[bloghashInt].heroImageHash,\n            blogHashToBlog[bloghashInt].publisher\n        );\n    }\n}\n",
  "sourcePath": "C:\\Users\\Tanay\\Documents\\6th Sem Project\\Decentralized-Blogging-WebApp-main\\Decentralized-Blogging-WebApp-main\\src\\contracts\\blogFactory.sol",
  "compiler": {
    "name": "solc",
    "version": "0.8.13+commit.abaa5c0e.Emscripten.clang"
  },
  "schemaVersion": "3.4.7",
  "updatedAt": "2022-04-11T13:01:00.788Z",
  "devdoc": {
    "kind": "dev",
    "methods": {},
    "version": 1
  },
  "userdoc": {
    "kind": "user",
    "methods": {},
    "version": 1
  }
}