{
  "contractName": "BlogFactory",
  "abi": [
    {
      "anonymous": false,
      "inputs": [
        {
          "indexed": false,
          "internalType": "uint256",
          "name": "blogId",
          "type": "uint256"
        },
        {
          "indexed": false,
          "internalType": "string",
          "name": "title",
          "type": "string"
        },
        {
          "indexed": false,
          "internalType": "string",
          "name": "content",
          "type": "string"
        },
        {
          "indexed": false,
          "internalType": "uint256",
          "name": "blogHash",
          "type": "uint256"
        }
      ],
      "name": "NewBlog",
      "type": "event"
    },
    {
      "inputs": [
        {
          "internalType": "uint256",
          "name": "",
          "type": "uint256"
        }
      ],
      "name": "blogToOwner",
      "outputs": [
        {
          "internalType": "address",
          "name": "",
          "type": "address"
        }
      ],
      "stateMutability": "view",
      "type": "function"
    },
    {
      "inputs": [
        {
          "internalType": "uint256",
          "name": "",
          "type": "uint256"
        }
      ],
      "name": "blogs",
      "outputs": [
        {
          "internalType": "string",
          "name": "title",
          "type": "string"
        },
        {
          "internalType": "string",
          "name": "content",
          "type": "string"
        },
        {
          "internalType": "address",
          "name": "publisher",
          "type": "address"
        },
        {
          "internalType": "uint256",
          "name": "blogHash",
          "type": "uint256"
        }
      ],
      "stateMutability": "view",
      "type": "function"
    },
    {
      "inputs": [
        {
          "internalType": "address",
          "name": "",
          "type": "address"
        }
      ],
      "name": "userBlogCount",
      "outputs": [
        {
          "internalType": "uint256",
          "name": "",
          "type": "uint256"
        }
      ],
      "stateMutability": "view",
      "type": "function"
    },
    {
      "inputs": [
        {
          "internalType": "string",
          "name": "_title",
          "type": "string"
        },
        {
          "internalType": "string",
          "name": "_content",
          "type": "string"
        }
      ],
      "name": "createBlog",
      "outputs": [],
      "stateMutability": "nonpayable",
      "type": "function"
    }
  ],
  "bytecode": "0x6080604052600060015534801561001557600080fd5b50610be3806100256000396000f3fe608060405234801561001057600080fd5b506004361061004c5760003560e01c806380f052d8146100515780638e4390cc14610084578063c1e41586146100b4578063d7e85046146100d0575b600080fd5b61006b60048036038101906100669190610602565b610100565b60405161007b9493929190610718565b60405180910390f35b61009e60048036038101906100999190610602565b610270565b6040516100ab919061076b565b60405180910390f35b6100ce60048036038101906100c991906108bb565b6102a3565b005b6100ea60048036038101906100e5919061095f565b6102bf565b6040516100f7919061098c565b60405180910390f35b6000818154811061011057600080fd5b9060005260206000209060040201600091509050806000018054610133906109d6565b80601f016020809104026020016040519081016040528092919081815260200182805461015f906109d6565b80156101ac5780601f10610181576101008083540402835291602001916101ac565b820191906000526020600020905b81548152906001019060200180831161018f57829003601f168201915b5050505050908060010180546101c1906109d6565b80601f01602080910402602001604051908101604052809291908181526020018280546101ed906109d6565b801561023a5780601f1061020f5761010080835404028352916020019161023a565b820191906000526020600020905b81548152906001019060200180831161021d57829003601f168201915b5050505050908060020160009054906101000a900473ffffffffffffffffffffffffffffffffffffffff16908060030154905084565b60026020528060005260406000206000915054906101000a900473ffffffffffffffffffffffffffffffffffffffff1681565b60006102ad6102d7565b90506102ba838383610326565b505050565b60036020528060005260406000206000915090505481565b6000600160008154809291906102ec90610a37565b9190505550423360015460405160200161030893929190610ae9565b6040516020818303038152906040528051906020012060001c905090565b600060405180608001604052808581526020018481526020013373ffffffffffffffffffffffffffffffffffffffff16815260200183815250908060018154018082558091505060019003906000526020600020906004020160009091909190915060008201518160000190805190602001906103a4929190610515565b5060208201518160010190805190602001906103c1929190610515565b5060408201518160020160006101000a81548173ffffffffffffffffffffffffffffffffffffffff021916908373ffffffffffffffffffffffffffffffffffffffff160217905550606082015181600301555050600060016000805490506104299190610b26565b9050336002600083815260200190815260200160002060006101000a81548173ffffffffffffffffffffffffffffffffffffffff021916908373ffffffffffffffffffffffffffffffffffffffff160217905550600360003373ffffffffffffffffffffffffffffffffffffffff1673ffffffffffffffffffffffffffffffffffffffff16815260200190815260200160002060008154809291906104cd90610a37565b91905055507f236cc72ba89033532459a768f0e45ade370ea0b1fdc05782a679700686b366cf818585856040516105079493929190610b5a565b60405180910390a150505050565b828054610521906109d6565b90600052602060002090601f016020900481019282610543576000855561058a565b82601f1061055c57805160ff191683800117855561058a565b8280016001018555821561058a579182015b8281111561058957825182559160200191906001019061056e565b5b509050610597919061059b565b5090565b5b808211156105b457600081600090555060010161059c565b5090565b6000604051905090565b600080fd5b600080fd5b6000819050919050565b6105df816105cc565b81146105ea57600080fd5b50565b6000813590506105fc816105d6565b92915050565b600060208284031215610618576106176105c2565b5b6000610626848285016105ed565b91505092915050565b600081519050919050565b600082825260208201905092915050565b60005b8381101561066957808201518184015260208101905061064e565b83811115610678576000848401525b50505050565b6000601f19601f8301169050919050565b600061069a8261062f565b6106a4818561063a565b93506106b481856020860161064b565b6106bd8161067e565b840191505092915050565b600073ffffffffffffffffffffffffffffffffffffffff82169050919050565b60006106f3826106c8565b9050919050565b610703816106e8565b82525050565b610712816105cc565b82525050565b60006080820190508181036000830152610732818761068f565b90508181036020830152610746818661068f565b905061075560408301856106fa565b6107626060830184610709565b95945050505050565b600060208201905061078060008301846106fa565b92915050565b600080fd5b600080fd5b7f4e487b7100000000000000000000000000000000000000000000000000000000600052604160045260246000fd5b6107c88261067e565b810181811067ffffffffffffffff821117156107e7576107e6610790565b5b80604052505050565b60006107fa6105b8565b905061080682826107bf565b919050565b600067ffffffffffffffff82111561082657610825610790565b5b61082f8261067e565b9050602081019050919050565b82818337600083830152505050565b600061085e6108598461080b565b6107f0565b90508281526020810184848401111561087a5761087961078b565b5b61088584828561083c565b509392505050565b600082601f8301126108a2576108a1610786565b5b81356108b284826020860161084b565b91505092915050565b600080604083850312156108d2576108d16105c2565b5b600083013567ffffffffffffffff8111156108f0576108ef6105c7565b5b6108fc8582860161088d565b925050602083013567ffffffffffffffff81111561091d5761091c6105c7565b5b6109298582860161088d565b9150509250929050565b61093c816106e8565b811461094757600080fd5b50565b60008135905061095981610933565b92915050565b600060208284031215610975576109746105c2565b5b60006109838482850161094a565b91505092915050565b60006020820190506109a16000830184610709565b92915050565b7f4e487b7100000000000000000000000000000000000000000000000000000000600052602260045260246000fd5b600060028204905060018216806109ee57607f821691505b60208210811415610a0257610a016109a7565b5b50919050565b7f4e487b7100000000000000000000000000000000000000000000000000000000600052601160045260246000fd5b6000610a42826105cc565b91507fffffffffffffffffffffffffffffffffffffffffffffffffffffffffffffffff821415610a7557610a74610a08565b5b600182019050919050565b6000819050919050565b610a9b610a96826105cc565b610a80565b82525050565b60008160601b9050919050565b6000610ab982610aa1565b9050919050565b6000610acb82610aae565b9050919050565b610ae3610ade826106e8565b610ac0565b82525050565b6000610af58286610a8a565b602082019150610b058285610ad2565b601482019150610b158284610a8a565b602082019150819050949350505050565b6000610b31826105cc565b9150610b3c836105cc565b925082821015610b4f57610b4e610a08565b5b828203905092915050565b6000608082019050610b6f6000830187610709565b8181036020830152610b81818661068f565b90508181036040830152610b95818561068f565b9050610ba46060830184610709565b9594505050505056fea26469706673582212205a43d0d7c99fb4735ddda48187143c8064e8028a06937975e2b196471be10b7064736f6c634300080b0033",
  "immutableReferences": {},
  "source": "pragma solidity >=0.4.22 <0.9.0;\r\n\r\ncontract BlogFactory{\r\n\r\n   event NewBlog(uint blogId, string title, string content, uint blogHash);\r\n\r\n    struct Blog{\r\n        string title;\r\n        string content;\r\n        address publisher;\r\n        uint blogHash;\r\n        //We have to add timestap later....\r\n    }\r\n\r\n    Blog[] public blogs;\r\n    \r\n    uint randNonce = 0; // for Generating BlogHash\r\n    // declare mappings here\r\n    mapping (uint => address) public blogToOwner;\r\n    mapping (address => uint) public userBlogCount;\r\n\r\n\r\n\r\n    function _publishBlog(string memory _title, string memory _content, uint _blogHash) private {\r\n        blogs.push(Blog(_title,_content, msg.sender, _blogHash));\r\n        uint id = blogs.length -1;\r\n        blogToOwner[id] = msg.sender;\r\n        userBlogCount[msg.sender]++;\r\n        emit NewBlog(id, _title,_content, _blogHash);\r\n    } \r\n\r\n    function _generateBlogHash() internal returns (uint) {\r\n        randNonce++;\r\n        return uint(keccak256(abi.encodePacked(block.timestamp, msg.sender, randNonce))) ;\r\n    }\r\n\r\n    function createBlog(string memory _title, string memory _content) public {\r\n        //uint randDna = _generateBlogHash(_name);\r\n        uint blogHash =  _generateBlogHash();\r\n        _publishBlog(_title, _content, blogHash);\r\n    }\r\n\r\n}\r\n",
  "sourcePath": "D:\\Blockchain\\Btp\\blog-main\\contracts\\blogFactory.sol",
  "compiler": {
    "name": "solc",
    "version": "0.8.11+commit.d7f03943.Emscripten.clang"
  },
  "schemaVersion": "3.4.4",
  "updatedAt": "2022-02-05T11:19:43.433Z",
  "devdoc": {
    "kind": "dev",
    "methods": {},
    "version": 1
  },
  "userdoc": {
    "kind": "user",
    "methods": {},
    "version": 1
  }
}